:200000000C945E010C94F0080C94C9080C9486010C9486010C9486010C9486010C94860115
:200020000C9486010C9486010C9486010C94A4090C947E090C9486010C9486010C94860162
:200040000C947F080C9486010C943D090C9417090C9486010C946F090C9486010C9486011F
:200060000C9486010C9486010A4865726520617265207468652076616C696420636F6D6DEF
:20008000616E647320666F7220757365207769746820746869732065717569706D656E743A
:2000A0003A0A6820092D204C6973747320636F6D6D616E647320666F7220757365207769C9
:2000C000746820746869732073797374656D0A7320092D2050757473207368616B6572204A
:2000E000696E2073657269616C20636F6E74726F6C2E0A6D20092D20507574732073686145
:200100006B657220696E206D616E75616C20636F6E74726F6C2E202844656661756C742983
:20012000200A7020092D2053657473207468652070756C7365206C656E67746820696E20AD
:200140006D696C6C697365636F6E647320666F72207468652027692720636F6D6D616E64FB
:200160002E0A647878787820092D2053657473207468652064757479206379636C65206FE8
:200180006620746865207368616B65722C20776865726520277878787827206973206120A8
:2001A0006E756D626572206265747765656E20302D313030300A697878787820092D20495C
:2001C0006E697469616C69736573207468652073797374656D2E205475726E73206F6E203D
:2001E0007468652063616D65726120616E642073657473207468652064757479206379635D
:200200006C652C207768657265202778787878272069732061206E756D62657220626574D7
:200220007765656E20302D313030300A004D6178696D756D2070686173652065786365658E
:200240006465642E2056616C6964206E756D626572732061726520302D313030302E000053
:20026000000000240027002A0000000000250028002B000000000023002600290004040413
:200280000404040404020202020202030303030303010204081020408001020408102001ED
:2002A0000204081020000000080002010000030407000000000000000000CD0911241FBEFF
:2002C000CFEFD8E0DEBFCDBF23E0A2EAB2E001C01D92A039B207E1F712E0A0E0B1E0E0EBB6
:2002E000F5E202C005900D92A23AB107D9F711E0CEE5D1E004C02197FE010E94D010CD3579
:20030000D107C9F70E943B0A0C94D6120C940000833081F028F4813099F08230A9F00895D4
:200320008730A9F08830C9F08430B1F4809180008F7D03C0809180008F778093800008957C
:2003400084B58F7784BD089584B58F7DFBCF8091B0008F778093B00008958091B0008F7D7D
:20036000F9CFCF93DF93282F30E0F901EB55FD4F8491F901EF56FD4FD491F901E358FD4F6E
:20038000C491CC23A1F081110E948801EC2FF0E0EE0FFF1FED58FD4FA591B491EC91ED232C
:2003A00081E090E009F480E0DF91CF91089580E090E0FACF1F93CF93DF93282F30E0F90122
:2003C000EB55FD4F8491F901EF56FD4FD491F901E358FD4FC491CC23A9F0162F81110E94B5
:2003E0008801EC2FF0E0EE0FFF1FE759FD4FA591B4918FB7F894EC91111108C0D095DE23C8
:20040000DC938FBFDF91CF911F910895DE2BF8CFCF93DF9390E0FC01EF56FD4F24918358D0
:200420009D4FFC0184918823D1F090E0880F991FFC01E15AFD4FA591B491FC01E759FD4F0B
:20044000C591D49161110EC09FB7F8948C91E22FE0958E238C932881E223E8839FBFDF9165
:20046000CF9108958FB7F894EC91E22BEC938FBFF6CF1F93CF93DF93182FEB0161E00E94F5
:200480000802209739F460E0812FDF91CF911F910C94DA01CF3FD10511F461E0F5CFE12F85
:2004A000F0E0EB55FD4FE491E33031F140F4E130B1F0E230E1F0C038D1057CF7E4CFE73062
:2004C00029F1E83059F1E430B1F780918000806280938000D0938B00C0938A0004C084B516
:2004E000806884BDC7BDDF91CF911F91089584B5806284BDC8BDF7CF8091800080688093FF
:200500008000D0938900C0938800EDCF8091B00080688093B000C093B300E5CF8091B000F1
:2005200080628093B000C093B400DDCF3FB7F8948091C2029091C302A091C402B091C50227
:2005400026B5A89B05C02F3F19F00196A11DB11D3FBFBA2FA92F982F8827BC01CD01620FED
:20056000711D811D911D42E0660F771F881F991F4A95D1F708958F929F92AF92BF92CF928C
:20058000DF92EF92FF924B015C010E9496026B017C010E9496026C197D098E099F09683EE2
:2005A000734081059105A8F321E0821A9108A108B10888EEC80E83E0D81EE11CF11C8114F5
:2005C0009104A104B10429F7FF90EF90DF90CF90BF90AF909F908F9008950895AF92BF9288
:2005E000CF92DF92EF92FF920F931F93CF93DF936C017B018B01040F151FEB015E01AE1822
:20060000BF08C017D10759F06991D601ED91FC910190F081E02DC6010995892B79F7C501E1
:20062000DF91CF911F910F91FF90EF90DF90CF90BF90AF900895FC01448155816081718128
:2006400086EC92E00C94EE02FC01538D448D252F30E0842F90E0821B930B541710F0CF96E6
:20066000089501970895FC01918D828D981761F0A28DAE0FBF2FB11D5D968C91928D9F5FA9
:200680009F73928F90E008958FEF9FEF0895FC01918D828D981731F0828DE80FF11D858D51
:2006A00090E008958FEF9FEF0895FC01918D228D892F90E0805C9F4F821B91098F739927CF
:2006C000089586EC92E00E94550321E0892B09F420E0822F089580E090E0892B29F00E9460
:2006E000610381110C9400000895FC01A48DA80FB92FB11DA35ABF4F2C91848D90E001964C
:200700008F739927848FA689B7892C93A089B1898C91837080648C93938D848D981306C0BE
:200720000288F389E02D80818F7D80830895EF92FF920F931F93CF93DF93EC0181E0888F5A
:200740009B8D8C8D98131AC0E889F989808185FF15C09FB7F894EE89FF896083E889F989CF
:2007600080818370806480839FBF81E090E0DF91CF911F910F91FF90EF900895F62E0B8DE8
:2007800010E00F5F1F4F0F731127E02E8C8D8E110CC00FB607FCFACFE889F989808185FF38
:2007A000F5CFCE010E947503F1CFEB8DEC0FFD2FF11DE35AFF4FF0829FB7F8940B8FEA8933
:2007C000FB8980818062CFCFCF93DF93EC01888D8823B9F0AA89BB89E889F9898C9185FDE1
:2007E00003C0808186FD0DC00FB607FCF7CF8C9185FFF2CF808185FFEDCFCE010E947503CB
:20080000E9CFDF91CF9108958F929F92AF92BF92EF92FF921F93CF93DF93EC01162FE8819C
:20082000F9810484F585E02D462F70E060E009957C0111501230D8F419861A868888998830
:20084000AA88BB880E949602688F798F8A8F9B8F8C8E9D8EAE8EBF8EC701DF91CF911F9191
:20086000FF90EF90BF90AF909F908F9008958C889D88AE88BF88E6CFDC0118968C9118972F
:20088000481710F04FEF480F1B969C911B97992389F017969C911797691730F0691B4F5F45
:2008A0004817D0F340E0F8CF19966C9319971A964C931A97FD01E40FF11D8485680F60684A
:2008C000CD010C9404048F929F92AF92BF92EF92FF920F931F93CF93DF93EC01462FE881B9
:2008E000F9810484F585E02D61E070E009957C018C889D88AE88BF880E949602688F798FD4
:200900008A8F9B8F8C8E9D8EAE8EBF8E01E010E0EF2811F010E000E08B85882399F08985BB
:200920008F5F89879F81891768F019868A858F5F8A879885891708F01A864A8560E0CE01C1
:200940000E943C04C801DF91CF911F910F91FF90EF90BF90AF909F908F9008958DEF9FEF3B
:2009600008958DEF9FEF089590E080E0089583E00E94B101019761F561E087E00E94DA01FC
:200980008091B902882399F180910B0190910C01A0910D01B0910E01883E9340A105B10587
:2009A000C4F4809188009091890040910701509108016091090170910A010197841B950B9B
:2009C00090938B0080938A00109285001092840008958091880090918900409107015091E5
:2009E00008016091090170910A010196E7CF609178007091790090E080E00E94110F23E31F
:200A000033E343E150E40E944E0F0E94601070938B0060938A00D8CF0F931F93CF938C0162
:200A2000C62FFC0183A161E0C0FF60E00E94DA01F80184A161E0C1FF60E00E94DA01F8010E
:200A400085A161E0C2FF60E00E94DA01F80186A161E0C3FF60E0CF911F910F910C94DA0123
:200A6000FC0187A18F3F81F190A59E3F51F4662331F060E00E94080290E080E0089561E076
:200A8000F9CF833041F02BEF280F223020F027EF280F233068F470E0913019F40E94390200
:200AA000EBCF2FEF30E0A901461B570BBA01F6CF662331F0913031F461E00E94DA01DCCF68
:200AC0009923D1F360E0F9CF8DEF9FEF0895EF92FF921F93CF93DF93EC0161E088A10E9456
:200AE000080289A18F3F39F061E00E94080260E089A10E94DA0161E08AA10E94080260E09F
:200B00008AA10E94DA0161E08BA10E94080261E08CA10E94080261E08DA10E94080261E09E
:200B20008EA10E9408021FA11F3F61F188A5813029F560E0812F0E94DA0160E0812F0E946F
:200B4000080261E0812F0E94080261E0812F0E94DA018FE090E00197F1F7812F0E94B1011D
:200B60007C0160E0812F0E94DA0160E0812F0E940802EA94EF2811F08EEF88A761E08FA13C
:200B80000E94080290E080E0DF91CF911F91FF90EF90089508954F925F926F927F928F920C
:200BA0009F92AF92BF92EF92FF921F93CF93DF93EC017B01142F88A161E091E0E916F1045F
:200BC00009F060E00E94DA01612F70E084E0759567958A95E1F7CE010E940C058C8C9D8C5B
:200BE000AE8CBF8C488C598C6A8C7B8C0E9496026419750986099709681579058A059B052C
:200C0000A8F361E08AA10E94DA0160E08AA10E94DA0182E0E816F10469F0612F6F70CE017C
:200C20000E940C0561E08AA10E94DA0160E08AA10E94DA0190E080E0DF91CF911F91FF9051
:200C4000EF90BF90AF909F908F907F906F905F904F900895CF92DF92EF92FF920F931F9388
:200C6000CF93DF93482F62E070E083E693E00E94CB058C01C3E6D3E0CC88DD88EE88FF88AA
:200C80000E949602688F798F8A8F9B8FCC8EDD8EEE8EFF8EC801DF91CF911F910F91FF9092
:200CA000EF90DF90CF9008958F929F92AF92BF92CF92DF92EF92FF920F931F93CF93DF935A
:200CC000FC0121A12F3F09F495C08B01EC01C48CD58CE68CF78C808C918CA28CB38C0E943E
:200CE0009602681979098A099B096C157D058E059F05A8F360E08BA10E94080260E08CA1C8
:200D00000E94080260E08DA10E94080260E08EA10E94080261E00130110509F060E088A108
:200D20000E94DA0161E089A10E94DA0161E08AA10E94DA018BA10E94B10110E1019709F063
:200D400010E08CA10E94B101019709F410628DA10E94B101019709F410648EA10E94B1010D
:200D6000019709F4106860E08AA10E94DA0161E08AA10E94DA018BA10E94B101019709F480
:200D800011608CA10E94B101019709F412608DA10E94B101019709F414608EA10E94B1014C
:200DA000019709F4186060E08AA10E94DA0161E08BA10E94080261E08CA10E94080261E0CA
:200DC0008DA10E94080261E08EA10E94080260E089A10E94DA01812F90E0DF91CF911F9196
:200DE0000F91FF90EF90DF90CF90BF90AF909F908F9008958DEF9FEFF0CFFB010190002088
:200E0000E9F73197AF01461B570BDC01ED91FC910280F381E02D09948F929F92AF92BF924B
:200E2000EF92FF920F931F93CF93DF93CDB7DEB7A1970FB6F894DEBF0FBECDBF7C01FA0168
:200E4000CB0119A2223008F42AE08E010F5D1F4F822E912CB12CA12CBF01A50194010E9496
:200E60008F10F901CA016A300CF5605DD8016E938D01232B242B252B79F790E080E010977A
:200E800021F0BD01C7010E94FD06A1960FB6F894DEBF0FBECDBFDF91CF911F910F91FF90E9
:200EA000EF90BF90AF909F908F900895695CDECFCF93DF93BC0186EC92E00E94FD06EC01C1
:200EC00063E571E086EC92E00E94FD068C0F9D1FDF91CF9108950F931F93CF93DF938C0177
:200EE000D0E0C0E0F801EC0FFD1F6491662341F086EC92E00E949703892B11F02196F2CF96
:200F000063E571E086EC92E00E94FD068C0F9D1FDF91CF911F910F9108950C94FD0662E0B6
:200F200083E693E00E94040466E571E083E693E00E948D0743E060E083E693E00E943C045C
:200F40008091B90263E671E0811102C06BE671E083E693E00C948D070E94B8120F931F9365
:200F6000CF93DF93EC0188819981009759F02A813B812617370730F081E0DF91CF911F91CA
:200F80000F9108958B016F5F7F4F0E94FB11009759F0998388831B830A832C813D81232B53
:200FA00059F7FC011082E8CF80E0E7CFCF93DF93EC0188819981009711F00E947211198249
:200FC00018821D821C821B821A82DF91CF910895EF92FF920F931F93CF93DF93EC017B01F1
:200FE000198218821B821A821D821C82FB0101900020E9F731978F01061B170BB8010E94C3
:20100000AE07811109C0CE01DF91CF911F910F91FF90EF900C94D6071D830C83B701888156
:201020009981DF91CF911F910F91FF90EF900C94CF12EF92FF920F931F93CF93DF938C0120
:201040007B01EB0109900020E9F72197C61BD70BBE010E94AE07811109C0C801DF91CF910A
:201060001F910F91FF90EF900C94D607F801D583C483B70180819181DF91CF911F910F9112
:20108000FF90EF900C94CF12EF92FF920F931F93CF93DF93EC01FB01E080F180E114F104E3
:2010A00011F10481158101151105A9F08C819D81080F191FB801CE010E94AE07882399F0C1
:2010C000288139818C819D81B701820F931F0E94CF121D830C83CE01DF91CF911F910F91E6
:2010E000FF90EF900895CE010E94D607F4CFFC0180819181009711F00C94721108951F921B
:201100000F920FB60F9211242F933F938F939F93AF93BF938091BE029091BF02A091C00271
:20112000B091C1023091BD0223E0230F2D3758F50196A11DB11D2093BD028093BE029093BA
:20114000BF02A093C002B093C1028091C2029091C302A091C402B091C5020196A11DB11DF6
:201160008093C2029093C302A093C402B093C502BF91AF919F918F913F912F910F900FBED1
:201180000F901F90189526E8230F0296A11DB11DD2CF1F920F920FB60F9211242F933F93CE
:2011A0004F935F936F937F938F939F93AF93BF93EF93FF93E0910301F09104010995FF9122
:2011C000EF91BF91AF919F918F917F916F915F914F913F912F910F900FBE0F901F901895D8
:2011E0001F920F920FB60F9211242F933F934F935F936F937F938F939F93AF93BF93EF931C
:20120000FF93E0910101F09102010995FF91EF91BF91AF919F918F917F916F915F914F91D7
:201220003F912F910F900FBE0F901F9018951F920F920FB60F9211242F933F934F935F9362
:201240006F937F938F939F93AF93BF93EF93FF9386EC92E00E947503FF91EF91BF91AF91E0
:201260009F918F917F916F915F914F913F912F910F900FBE0F901F9018951F920F920FB630
:201280000F9211242F938F939F93EF93FF93E091D602F091D7028081E091DC02F091DD02FB
:2012A00082FD1BC090818091DF028F5F8F732091E002821741F0E091DF02F0E0EA53FD4FD9
:2012C000958F8093DF02FF91EF919F918F912F910F900FBE0F901F9018958081F4CF1F92FA
:2012E0000F920FB60F9211248F9381E08093BC028F910F900FBE0F901F9018951F920F9285
:201300000FB60F9211242F933F934F935F936F937F938F939F93AF93BF93EF93FF9360E07A
:2013200087E00E94DA01FF91EF91BF91AF919F918F917F916F915F914F913F912F910F90CA
:201340000FBE0F901F9018951F920F920FB60F9211242F933F934F935F936F937F938F933A
:201360009F93AF93BF93EF93FF9361E087E00E94DA0181E08093BA02FF91EF91BF91AF919E
:201380009F918F917F916F915F914F913F912F910F900FBE0F901F901895CF93DF93E6EC80
:2013A000F2E01382128288EE93E0A0E0B0E084839583A683B78389E191E09183808385EC54
:2013C00090E09587848784EC90E09787868780EC90E0918B808B81EC90E0938B828B82ECF2
:2013E00090E0958B848B86EC90E0978B868B118E128E138E148EC3E6D3E01B821A828BE2B5
:2014000091E0998388831F82188680ED97E0A0E0B0E0888B998BAA8BBB8B86E290E0A0E0F7
:20142000B0E08C8B9D8BAE8BBF8B1C861D861E861F861B860E949602688F798F8A8F9B8FAF
:201440001C8E1D8E1E8E1F8E81E491E09983888382E088A38BE08AA38FEF89A39FE09BA355
:2014600090E19CA391E19DA39CE09EA38FA388A7DF91CF910895CF93DF93CDB7DEB7A89753
:201480000FB6F894DEBF0FBECDBF789484B5826084BD84B5816084BD85B5826085BD85B5AA
:2014A000816085BD80916E00816080936E001092810080918100826080938100809181006B
:2014C000816080938100809180008160809380008091B10084608093B1008091B000816086
:2014E0008093B00080917A00846080937A0080917A00826080937A0080917A0081608093B4
:201500007A0080917A00806880937A001092C10060ED77E080E090E00E94BB0260E083E078
:201520000E94080261E086E00E94080261E087E00E94080260E088E00E94080261E08FE054
:201540000E94080261E080E10E94080261E081E10E94080261E087E00E94DA0161E086E076
:201560000E94DA0180916F0381110CC080917003811108C080917103811104C080917203CE
:20158000882331F080916A03882369F0843159F010926F0380E48093700384E18093710315
:2015A00084E58093720384E080936B0384E180936A0364E670E080E090E00E94BB02109205
:2015C000670383E693E00E946705892B09F04CC080916B03823028F080916703886080933F
:2015E000670380E30E942A0665E070E080E090E00E94BB0280E30E942A0661E070E080E062
:2016000090E00E94BB0280E30E942A0661E070E080E090E00E94BB028091670384FD03C047
:2016200080E20E942A0660916703606283E693E00E94040484E0809368036CE083E693E0C9
:201640000E94040461E083E693E00E94040482E08093690366E083E693E00E9404046FEF0E
:2016600083E693E00E94300561E083E693E00E94040462E083E693E00E94040466E571E08C
:2016800083E693E00E948D07109280001092810082E999E0909389008093880080910001B6
:2016A00020E4829FC001112480937C0080917A00806480937A0080917A0086FDFCCF6091BA
:2016C000780070917900072E000C880B990B0E94130F23E333E343E150E40E944E0F0E94C7
:2016E000601070938B0060938A0080918000806880938000809181008B6180938100809140
:20170000810083608093810081E08093000180E880937A0080917A00876080937A00809157
:201720007C00806480937C0080917C0080937C0080916B00816080936B000E948F07F894FF
:201740008091680081608093680087EB94E0909304018093030180916900837F846080931C
:201760006900E99A86E080936F007894E091D602F091D70292E09083E091D202F091D302C6
:201780001082E091D402F091D50290E190831092DE02E091DA02F091DB028083E091D80219
:2017A000F091D902808180618083E091D802F091D902808188608083E091D802F091D902AE
:2017C000808180688083E091D802F091D90280818F7D808382E791E00E945807812C34E0CA
:2017E000932EA12CB12C332433942AE0222E8091BC02882321F01092BB021092BC028091AB
:20180000BB0281110BC03092BB0280917C0080937C0080917A00886480937A0086EC92E02B
:201820000E945503181619060CF034C20E948F0786EC92E00E9433038A30B9F08D3009F45E
:2018400029C22091B7023091B8022431310508F066C2A9014F5F5F4F5093B8024093B702DE
:201860002D553D4FF901808315C28091A202882349F16EE971E086EC92E00E948D071CA26C
:201880001BA21EA21DA218A61FA24AE0BE016F5F7F4F84E190E00E94E70EBE016F5F7F4F41
:2018A000CE0183960E941908CE0183960E941B03CE0183960E9477088EEB91E00E945807E1
:2018C0001092A202E091B702F091B802ED55FD4F108293EA492E92E0592EF2011081812F1C
:2018E000012E000C990B0E94BF12892B09F4C8C1C20101966C01183609F499C1C4F41033F5
:201900002CF01A330CF41EC11436C1F064E572E086EC92E00E948D07F201608186EC92E017
:201920000E94970386E592E00E9458070BC11D3609F497C10CF066C0193641F710920B01C2
:2019400010920C0110920D0110920E01360185E0E82EF12CF30181913F01082E000C990B7C
:20196000FC01F097EA30F10508F065C021E0E21AF10809F460C020910B0130910C01409147
:201980000D0150910E01AAE0B0E00E940F1060930B0170930C0180930D0190930E0140913B
:2019A0000B0150910C0160910D0170910E01CF01FF0FAA0BBB0B840F951FA61FB71F8093D0
:2019C0000B0190930C01A0930D01B0930E0180910B0190910C01A0910D01B0910E01893E97
:2019E0009340A105B1050CF4B5CF10920B0110920C0110920D0110920E018DE292E00E94F3
:201A00006B07A8CF103709F49FC0133709F07ECF3092B9028AE192E00E94580743E060E0EC
:201A200083E693E00E943C0463E671E083E693E00E948D0787C060910B0170910C018091D9
:201A40000D0190910E011CA21BA21EA21DA218A61FA22AE0AE014F5F5F4F0E94B60EBE0195
:201A60006F5F7F4FCE0183960E94190864ED71E0CE0101960E94E807BE016D5D7F4FCE0160
:201A800001960E9444080E941B0363E571E086EC92E00E94FD06CE0101960E947708CE0189
:201AA00083960E947708A0918800B091890020910B0130910C0140910D0150910E010E946D
:201AC0000F1028EE33E040E050E00E94B11020930701309308014093090150930A01F201C6
:201AE0008081893679F58FB7F8944090BE025090BF026090C0027090C1028FBF60E086E04C
:201B00000E94DA012FB7F8948091BE029091BF02A091C002B091C1022FBF40910501509186
:201B2000060184199509A609B709052E000C660B770B481759076A077B0720F761E086E052
:201B40000E94DA012601C9CE1092060110920501FC018191082E000C990BC0978A3091055D
:201B6000C0F44091050150910601249E9001259E300D112430930601209305012091050130
:201B800030910601820F931F9093060180930501E0CF80910501909106011CA21BA21EA2CE
:201BA0001DA218A61FA24AE0BE016F5F7F4F0E94AB0EBE016F5F7F4FCE0183960E94190801
:201BC00068EE71E0CE0101960E94E807BE016D5D7F4FCE0101960E9444088C01FC01E480CE
:201BE000F580F2E0EF0EF11CB7010E94AE078823D1F0F80120813181848195816CEF71E006
:201C0000820F931F0E94CF12F801F582E482C8010E941B03CE0101960E947708CE01839630
:201C20000E9477088FCFC8010E94D607F0CF6FEF71E086EC92E00E948D072AE044E150E0F6
:201C400060E070E086EC92E00E940C0763E571E086EC92E00E94FD0688E690E00E946B0747
:201C600071CF1092B90283E392E00E94580743E060E083E693E00E943C046CE472E0D6CE87
:201C80001092B8021092B70284E1E3EAF2E011928A95E9F78091BA028823A1F11092BA027F
:201CA00040E06CE083E693E00E943C048091B9028823E1F16BE972E0813001F5C0900B0108
:201CC000D0900C01E0900D01F0900E012AE0B701A601F7FE0DC06DE283E693E00E9463042B
:201CE00044275527BA014C195D096E097F092AE083E693E00E940C0768E972E083E693E05E
:201D00000E948D0780E090E0892B09F470CD0E946103882309F467CD0E94000064CD809109
:201D2000A2028111B7CF3092A202B4CF8091780090917900A5019401281B390B4109510975
:201D4000A8EEB3E00E940F10A50194010E94B110BA01A901CCCFBB274A3031F4992322F4A8
:201D6000BDE2909581959F4F0C94E80EBB272A3051F4992342F4BDE29095809570956195BE
:201D80007F4F8F4F9F4F0C94C60EBB27FA01A62F6217710581059105330B30FB66F0AA27E8
:201DA000660F771F881F991FAA1FA21710F0A21B63953850A9F7A05DAA3308F0A95DA1934E
:201DC00036F7B111B1931082CA010C94010FBB27FB015527AA27880F991FAA1FA41710F0C5
:201DE000A41B83955051B9F7A05DAA3308F0A95DA193009779F7B111B1931192CB010C9493
:201E0000010FDC01FC01672F71917723E1F7329704C07C916D9370836291AE17BF07C8F308
:201E20000895E89409C097FB3EF490958095709561957F4F8F4F9F4F9923A9F0F92F96E931
:201E4000BB279395F695879577956795B795F111F8CFFAF4BB0F11F460FF1BC06F5F7F4F21
:201E60008F4F9F4F16C0882311F096E911C0772321F09EE8872F762F05C0662371F096E80B
:201E8000862F70E060E02AF09A95660F771F881FDAF7880F9695879597F908950E94610F14
:201EA0000C94D50F0E94C70F38F00E94CE0F20F0952311F00C94BE0F0C94C40F11240C9401
:201EC00009100E94E60F70F3959FC1F3950F50E0551F629FF001729FBB27F00DB11D639F0D
:201EE000AA27F00DB11DAA1F649F6627B00DA11D661F829F2227B00DA11D621F739FB00DB8
:201F0000A11D621F839FA00D611D221F749F3327A00D611D231F849F600D211D822F762FF6
:201F20006A2F11249F5750409AF0F1F088234AF0EE0FFF1FBB1F661F771F881F91505040D5
:201F4000A9F79E3F510580F00C94BE0F0C9409105F3FE4F3983ED4F3869577956795B79597
:201F6000F795E7959F5FC1F7FE2B880F911D9695879597F9089599278827089597F99F671F
:201F800080E870E060E008959FEF80EC089500240A941616170618060906089500240A947E
:201FA00012161306140605060895092E0394000C11F4882352F0BB0F40F4BF2B11F460FF06
:201FC00004C06F5F7F4F8F4F9F4F089557FD9058440F551F59F05F3F71F04795880F97FBE8
:201FE000991F61F09F3F79F087950895121613061406551FF2CF4695F1DF08C0161617068C
:202000001806991FF1CF86957105610508940895E894BB2766277727CB0197F908950E94D6
:202020005110A59F900DB49F900DA49F800D911D112408952F923F924F925F926F927F92A8
:202040008F929F92AF92BF92CF92DF92EF92FF920F931F93CF93DF93CDB7DEB7CA1BDB0BAC
:202060000FB6F894DEBF0FBECDBF09942A88398848885F846E847D848C849B84AA84B984C9
:20208000C884DF80EE80FD800C811B81AA81B981CE0FD11D0FB6F894DEBF0FBECDBFED011C
:2020A0000895A29FB001B39FC001A39F700D811D1124911DB29F700D811D1124911D089552
:2020C0000E94EE0F88F09F5798F0B92F9927B751B0F0E1F0660F771F881F991F1AF0BA9587
:2020E000C9F714C0B13091F00E940810B1E008950C940810672F782F8827B85F39F0B93F26
:20210000CCF3869577956795B395D9F73EF490958095709561957F4F8F4F9F4F0895A1E2A4
:202120001A2EAA1BBB1BFD010DC0AA1FBB1FEE1FFF1FA217B307E407F50720F0A21BB30B3E
:20214000E40BF50B661F771F881F991F1A9469F760957095809590959B01AC01BD01CF01FD
:202160000895052E97FB1EF400940E94C81057FD07D00E948F1007FC03D04EF40C94C810E1
:2021800050954095309521953F4F4F4F5F4F089590958095709561957F4F8F4F9F4F089527
:2021A000EE0FFF1F0590F491E02D09940F931F93CF93DF938230910510F482E090E0E09189
:2021C0008E03F0918F0330E020E0B0E0A0E0309799F42115310509F44AC0281B390B243099
:2021E0003105D8F58A819B816115710589F1FB0193838283FE0111C04081518102811381BE
:2022000048175907E0F04817590799F4109761F012960C93129713961C933296CF01DF919B
:20222000CF911F910F91089500938E0310938F03F4CF2115310551F04217530738F0A90103
:20224000DB019A01BD01DF01F801C1CFEF01F9CF90938F0380938E03CDCFFE01E20FF31F31
:20226000819391932250310939832883D7CF20918C0330918D03232B41F4209111013091D5
:20228000120130938D0320938C0320910F01309110012115310541F42DB73EB740911301A4
:2022A00050911401241B350BE0918C03F0918D03E217F307A0F42E1B3F0B2817390778F097
:2022C000AC014E5F5F4F2417350748F04E0F5F1F50938D0340938C03819391939FCFF0E021
:2022E000E0E09CCFCF93DF930097E9F0FC01329713821282A0918E03B0918F03ED0130E0ED
:2023000020E01097A1F420813181820F931F20918C0330918D032817390709F061C0F0933E
:202320008D03E0938C03DF91CF910895EA01CE17DF07E8F54A815B819E0141155105B1F771
:20234000E901FB83EA8349915991C40FD51FEC17FD0761F4808191810296840F951FE901E5
:2023600099838883828193819B838A83F0E0E0E012968D919C9113970097B9F52D913C91F7
:202380001197CD010296820F931F20918C0330918D032817390739F6309751F510928F036C
:2023A00010928E03B0938D03A0938C03BCCFD383C28340815181840F951FC817D90761F441
:2023C0004E5F5F4F88819981480F591F518340838A819B81938382832115310509F0B0CFF3
:2023E000F0938F03E0938E039ECFFD01DC01C0CF13821282D7CFB0E0A0E0E1E0F2E10C94DA
:202400001C108C01009751F4CB010E94D6108C01C801CDB7DEB7E0E10C943810FC01E60FC9
:20242000F71F9C0122503109E217F30708F49DC0D901CD91DC911197C617D70798F0C5306C
:20244000D10530F3CE0104978617970708F3C61BD70B2297C193D1936D937C93CF010E942E
:202460007211D6CF5B01AC1ABD0A4C018C0E9D1EA0918E03B0918F03512C412CF12CE12C00
:20248000109731F580918C0390918D038815990509F05CC04616570608F058C080910F01E4
:2024A00090911001009741F48DB79EB74091130150911401841B950BE817F90708F055C05F
:2024C000F0938D03E0938C03F90171836083A0CF8D919C91119712966C90129713967C90B2
:2024E0001397A815B90559F56C0142E0C40ED11CCA14DB0420F1AC014A195B09DA01129656
:20250000159780F06282738251834083D9016D937C93E114F10471F0D7011396FC93EE936A
:20252000129776CF22968C0F9D1FF90191838083F301EFCFF0938F03E0938E0369CF48162C
:20254000590608F42C017D01D3019ACFCB010E94D6107C01009749F0AE01B8010E94C612B5
:20256000C8010E947211870153CF10E000E050CF81E090E0F8940C94D612803209F09111A2
:202580000C94BB0F80528F55D8F70895FB01DC0102C001900D9241505040D8F70895FB015B
:2025A000DC0101900D920020E1F70895F894FFCF01ED02ED02C800F4010000F4010000008E
:2025C0000090038000000000009703EE022403E403550333034703000000006304EE02B46D
:2025E00004CA05B404B104AC07AE04AE04000000006304EE02B404CA0567055406CB0530E0
:2026000005AE040D0A0044757479204379636C653A200053657269616C20004D616E75616A
:202620006C0053797374656D2072656164792E20547970652027682720666F7220736572DD
:2026400069616C20636F6D6D616E64732E000A427566666572206F766572666C6F772E205E
:20266000506C6561736520656E74657220002063686172616374657273206D6178696D75B1
:202680006D2E0A000A44757479204379636C652073657420746F20000A50756C736520749F
:2026A000696D652073657420746F20006D73000A4D6178696D756D20636F6D6D616E642069
:2026C0006C656E677468203D20000A53657269616C20636F6E74726F6C20656E61626C65E9
:2026E000642E000A4D616E75616C20636F6E74726F6C20656E61626C65642E004D616E7515
:20270000616C200027002720697320616E20696E76616C696420636F6D6D616E642E2054EB
:202720007970652027682720666F722061206C697374206F662061636365707465642063E0
:202740006F6D6D616E6473002020004572726F720000FFFFFFFFFFFFFFFFFFFFFFFFFFFF4E
:20276000FFFFFFFFFFFFFFFFFFFFFFFFFFFFFFFFFFFFFFFFFFFFFFFFFFFFFFFFFFFFFFFF79
:2027800020636F6D6D616E6473002020004144433A200054696D65722064696666203A0051
:2027A0004572726F7200FFFFFFFFFFFFFFFFFFFFFFFFFFFFFFFFFFFFFFFFFFFFFFFFFFFF29
:2027C000FFFFFFFFFFFFFFFFFFFFFFFFFFFFFFFFFFFFFFFFFFFFFFFFFFFFFFFFFFFFFFFF19
:2027E000FFFFFFFFFFFFFFFFFFFFFFFFFFFFFFFFFFFFFFFFFFFFFFFFFFFFFFFFFFFFFFFFF9
:20280000D11CCA14DB0478F14C018A189B08640142E0C40ED11C1296BC9012971396AC914A
:20282000B5E0CB16D10440F0B282A38391828082D9016D937C9309C00E5F1F4F800F911FE2
:20284000F90191838083EB2DFA2FE114F10431F0D7011396FC93EE93129741C0F093400419
:20286000E0933F043CC06816790608F43C017D0112960D90BC91A02DB7CF80913D0490919A
:202880003E0488169906E1F466167706C8F48091070190910801009741F48DB79EB74091B6
:2028A0000B0150910C01841B950BE817F907C8F4F0933E04E0933D04F901718360830FC00B
:2028C000CB010E9491127C01009759F0A801BE010E948614CE010E942913C70104C0CE01DE
:2028E00002C080E090E0CDB7DEB7EEE00C94F51181E090E0F8940C949614803209F09111C5
:202900000C94761180528F55D8F70895FB01DC0102C001900D9241505040D8F70895FB011A
:20292000DC0101900D920020E1F70895F894FFCF017B017B01C80000004104800000000015
:20294000000F027C01A6015C02D701B501C90100000000FC02F1028E02C502E902D502C6BC
:20296000020000000075067C018E020D038E028B026A08880288020000000075067C018E94
:20298000020D0348049B03A7046403880244757479204379636C653A200053657269616C2F
:2029A00020004D616E75616C0053797374656D2072656164792E20547970652027682720F9
:2029C000666F722073657269616C20636F6D6D616E64732E000A427566666572206F7665A2
:2029E00072666C6F772E20506C6561736520656E7465722000206368617261637465727367
:202A0000206D6178696D756D2E0A000A50756C73652074696D652073657420746F20006D82
:202A200073000A4D6178696D756D20636F6D6D616E64206C656E677468203D20000D0A0006
:202A40000A53657269616C20636F6E74726F6C20656E61626C65642E000A4D616E75616C6A
:202A600020636F6E74726F6C20656E61626C65642E004D616E75616C200027002720697354
:202A800020616E20696E76616C696420636F6D6D616E642E20547970652027682720666F86
:202AA000722061206C697374206F6620616363657074656420636F6D6D616E647300202047
:202AC000004572726F72000A44757479204379636C652073657420746F200000FFFFFFFFA1
:202AE000FFFFFFFFFFFFFFFFFFFFFFFFFFFFFFFFFFFFFFFFFFFFFFFFFFFFFFFFFFFFFFFFF6
:202B00004A815B819E0141155105F1F0EA01F5CFD383C28340815181840F951FC817D907FF
:202B200059F488819981840F951F0296918380838A819B81938382832115310529F4F093E1
:202B40009104E09390043DC0E901FB83EA8349915991C40FD51FEC17FD0761F4808191810D
:202B6000840F951F0296E90199838883828193819B838A83E0E0F0E012968D919C911397F6
:202B8000009719F0FD01DC01F7CF8D919C9111979D012E5F3F4F820F931F20918E04309101
:202BA0008F042817390769F4309729F4109291041092900402C013821282B0938F04A09361
:202BC0008E04DF91CF910895A0E0B0E0EAEEF5E10C940B14EC01009721F4CB010E94C3149B
:202BE000B4C0FC01E60FF71F9C0122503109E217F30708F4A8C0D9010D911C9111970617CF
:202C00001707B0F00530110508F49BC0C80104978617970708F495C002501109061B170BB5
:202C2000019311936D937C93CF010E945B1589C05B01A01AB10A4C01800E911EA091900402
:202C4000B0919104612C712CE12CF12C109709F446C08D919C911197A815B905B1F56C011F
:202C600042E0C40ED11CCA14DB0478F14C018A189B08640142E0C40ED11C1296BC901297D8
:202C80001396AC91B5E0CB16D10440F0B282A38391828082D9016D937C9309C00E5F1F4FD7
:202CA000800F911FF90191838083EB2DFA2FE114F10431F0D7011396FC93EE93129741C03D
:202CC000F0939104E09390043CC06816790608F43C017D0112960D90BC91A02DB7CF80912F
:202CE0008E0490918F0488169906E1F466167706C8F48091070190910801009741F48DB774
:202D00009EB740910B0150910C01841B950BE817F907C8F4F0938F04E0938E04F901718390
:202D200060830FC0CB010E94C3147C01009759F0A801BE010E94B816CE010E945B15C701BE
:202D400004C0CE0102C080E090E0CDB7DEB7EEE00C94271481E090E0F8940C94D7168032F0
:202D600009F091110C94A81380528F55D8F70895FB01DC0102C001900D9241505040D8F780
:202D80000895FB01DC0101900D920020E1F70895FB01DC014150504048F001900D92002076
:202DA000C9F701C01D9241505040E0F70895F894FFCF0178017801C8000000920480000023
:202DC0000000000C027901A3015902D401B201C601000000001B03EE028B02C202E602D204
:202DE00002C30200000000B40879018B024B038B028802C20A85028502000000002D0A7360
:202E0000034A037503E80400000000000000004A03C20AC20A00000000B40879018B024B0B
:202E2000036706BA05C60683058502424E4F3035350044757479204379636C653A200053AC
:202E4000657269616C20004D616E75616C0053797374656D2072656164792E20547970653D
:202E60002027682720666F722073657269616C20636F6D6D616E64732E000A4275666665E3
:202E800072206F766572666C6F772E20506C6561736520656E746572200020636861726107
:202EA0006374657273206D6178696D756D2E0A0025000D0A000A50756C73652074696D657D
:202EC0002073657420746F20006D73000A4D6178696D756D20636F6D6D616E64206C656E3D
:202EE000677468203D20000A53657269616C20636F6E74726F6C20656E61626C65642E006E
:202F00000A4D616E75616C20636F6E74726F6C20656E61626C65642E004D616E75616C2091
:202F20000027002720697320616E20696E76616C696420636F6D6D616E642E205479706562
:202F40002027682720666F722061206C697374206F6620616363657074656420636F6D6DBD
:202F6000616E6473004572726F72000A44757479204379636C652073657420746F20000052
:202F80002000FFFFFFFFFFFFFFFFFFFFFFFFFFFFFFFFFFFFFFFFFFFFFFFFFFFFFFFFFFFF2F
:202FA000FFFFFFFFFFFFFFFFFFFFFFFFFFFFFFFFFFFFFFFFFFFFFFFFFFFFFFFFFFFFFFFF31
:202FC000FFFFFFFFFFFFFFFFFFFFFFFFFFFFFFFFFFFFFFFFFFFFFFFFFFFFFFFFFFFFFFFF11
:202FE000FFFFFFFFFFFFFFFFFFFFFFFFFFFFFFFFFFFFFFFFFFFFFFFFFFFFFFFFFFFFFFFFF1
:203000008150FBCFC20ED11C20E0992329F0D6019C93F60131966F01C6010396E2FE0BC044
:2030200039E4D6013C933EE411963C93119736E412963C9307C039E6F60130833EE6318394
:2030400036E63283FC01322F40E2332319F041933150FBCFFC01E20FF11D10828EEF9FEF08
:20306000A6C021E030E0911102C020E030E0161617061CF4FB01319602C0E1E0F0E02E0FB9
:203080003F1FBB2021F0EB2DF0E0319602C0E0E0F0E02E0F3F1FE12FF0E02E173F071CF4CF
:2030A000121B212F01C020E08E2D887159F4F601822F30E2882319F031938150FBCFC20E34
:2030C000D11C20E0992329F0D6019C93F60131966F0151110BC0F601822F90E3882319F0FE
:2030E00091938150FBCFC20ED11C20E00F2D060F9A81342F307144FF03C0913309F40150CC
:20310000101624F4093018F008E001C001E0AB0177FF02C040E050E0FB01E41BF50BA1E0F6
:20312000B0E0AC0FBD1FEA0FFB1F8EE2A82E4B01801A91080B2D10E01195019511094F3F84
:20314000BFEF5B0721F4D601AC9211966D01641775072CF08416950614F4818101C080E3AA
:20316000415051093196D60111967D014017510724F0D6018C936701E2CF6417750739F4AB
:20318000963320F4953319F4311101C081E3F6018083F701822F90E2882319F09193815058
:2031A000FBCFF701E20FF11D108280E090E02996ECE00C94EE1A283008F027E03327DA012D
:2031C000990F311D87FD916000966105710539F432602E5F3D9330E32A95E1F708959F3FD1
:2031E00030F080387105610509F03C5F3C5F3D93913008F08068911DDF93CF931F930F93A5
:20320000FF92EF92192F987F9695E92F96959695E90FFF27EE53FF4F99273327EE24FF24A8
:20322000A701E70105900894079428F4360FE71EF81E491F511D660F771F881F991F0694DC
:20324000A1F70590079428F4E70EF81E491F561FC11D770F881F991F661F0694A1F7059093
:20326000079428F4F80E491F561FC71FD11D880F991F661F771F0694A1F70590079420F400
:20328000490F561FC71FD81F990F661F771F881F0694A9F784911095177041F0D695C795A7
:2032A00057954795F794E7941A95C1F7E8E6F0E068941590159135916591959105907FE21C
:2032C0007395E118F10A430B560BC90BD009C0F7E10CF11E431F561FC91FD01D7EF4703322
:2032E00011F48A95E6CFE894015030F0080F0AF40027021708F4202F2395022F7A3328F0BA
:2033000079E37D932A95E9F710C07D932A9589F6069497956795379517951794E118F10AAB
:20332000430B560BC90BD00998F023957E9173957A3308F070E37C932013B8F77E91706111
:203340007D9330F0839571E37D9370E32A95E1F71124EF90FF900F911F91CF91DF919927B4
:2033600087FD90950895DC01FC01672F71917723E1F7329704C07C916D9370836291AE17DE
:20338000BF07C8F30895E89409C097FB3EF490958095709561957F4F8F4F9F4F9923A9F0E2
:2033A000F92F96E9BB279395F695879577956795B795F111F8CFFAF4BB0F11F460FF1BC0A1
:2033C0006F5F7F4F8F4F9F4F16C0882311F096E911C0772321F09EE8872F762F05C06623D9
:2033E00071F096E8862F70E060E02AF09A95660F771F881FDAF7880F9695879597F90895D2
:203400000E94131A0C94871A0E94791A38F00E94801A20F0952311F00C94701A0C94761AE0
:2034200011240C94BB1A0E94981A70F3959FC1F3950F50E0551F629FF001729FBB27F00D19
:20344000B11D639FAA27F00DB11DAA1F649F6627B00DA11D661F829F2227B00DA11D621F41
:20346000739FB00DA11D621F839FA00D611D221F749F3327A00D611D231F849F600D211D08
:20348000822F762F6A2F11249F5750409AF0F1F088234AF0EE0FFF1FBB1F661F771F881F7B
:2034A00091505040A9F79E3F510580F00C94701A0C94BB1A5F3FE4F3983ED4F38695779580
:2034C0006795B795F795E7959F5FC1F7FE2B880F911D9695879597F90895992788270895F8
:2034E00097F99F6780E870E060E008959FEF80EC089500240A941616170618060906089535
:2035000000240A9412161306140605060895092E0394000C11F4882352F0BB0F40F4BF2B32
:2035200011F460FF04C06F5F7F4F8F4F9F4F089557FD9058440F551F59F05F3F71F0479537
:20354000880F97FB991F61F09F3F79F087950895121613061406551FF2CF4695F1DF08C036
:20356000161617061806991FF1CF86957105610508940895E894BB2766277727CB0197F957
:2035800008950E94031BA59F900DB49F900DA49F800D911D112408952F923F924F925F9249
:2035A0006F927F928F929F92AF92BF92CF92DF92EF92FF920F931F93CF93DF93CDB7DEB7F0
:2035C000CA1BDB0B0FB6F894DEBF0FBECDBF09942A88398848885F846E847D848C849B84F4
:2035E000AA84B984C884DF80EE80FD800C811B81AA81B981CE0FD11D0FB6F894DEBF0FBEB6
:20360000CDBFED010895A29FB001B39FC001A39F700D811D1124911DB29F700D811D1124AD
:20362000911D08950E94261B0C94871A0E94801A58F00E94791A40F029F45F3F29F00C94BE
:20364000701A51110C94BB1A0C94761A0E94981A68F39923B1F3552391F3951B550BBB27DC
:20366000AA2762177307840738F09F5F5F4F220F331F441FAA1FA9F335D00E2E3AF0E0E8A9
:2036800032D091505040E695001CCAF72BD0FE2F29D0660F771F881FBB1F261737074807E8
:2036A000AB07B0E809F0BB0B802DBF01FF2793585F4F3AF09E3F510578F00C94701A0C9446
:2036C000BB1A5F3FE4F3983ED4F3869577956795B795F7959F5FC9F7880F911D96958795BE
:2036E00097F90895E1E0660F771F881FBB1F621773078407BA0720F0621B730B840BBA0BB2
:20370000EE1F88F7E09508950E94A01A88F09F5798F0B92F9927B751B0F0E1F0660F771F8D
:20372000881F991F1AF0BA95C9F714C0B13091F00E94BA1AB1E008950C94BA1A672F782F86
:203740008827B85F39F0B93FCCF3869577956795B395D9F73EF490958095709561957F4F53
:203760008F4F9F4F0895A1E21A2EAA1BBB1BFD010DC0AA1FBB1FEE1FFF1FA217B307E40783
:20378000F50720F0A21BB30BE40BF50B661F771F881F991F1A9469F76095709580959095F7
:2037A0009B01AC01BD01CF010895052E97FB1EF400940E94EC1B57FD07D00E94B31B07FCE3
:2037C00003D04EF40C94EC1B50954095309521953F4F4F4F5F4F089590958095709561954C
:2037E0007F4F8F4F9F4F0895EE0FFF1F0590F491E02D09940F931F93CF93DF938230910543
:2038000010F482E090E0E0913305F091340520E030E0A0E0B0E0309719F140815181028168
:20382000138148175907C8F08417950769F4109731F012960C93129713961C9327C000935F
:2038400033051093340522C02115310519F04217530718F49A01BD01EF01DF01F801DBCF72
:2038600021153105F9F0281B390B2430310580F48A819B816115710521F0FB019383828333
:2038800004C09093340580933305FE01329644C0FE01E20FF31F8193919322503109398350
:2038A00028833AC02091310530913205232B41F42091090130910A01309332052093310597
:2038C00020910701309108012115310541F42DB73EB740910B0150910C01241B350BE09130
:2038E0003105F0913205E217F307A0F42E1B3F0B2817390778F0AC014E5F5F4F241735075A
:2039000048F04E0F5F1F50933205409331058193919302C0E0E0F0E0CF01DF91CF911F9197
:203920000F910895CF93DF93009709F481C0FC01329713821282A0913305B0913405109728
:2039400081F420813181820F931F20913105309132052817390751F5F0933205E093310555
:2039600067C0ED0120E030E0CE17DF0740F44A815B819E0141155105F1F0EA01F5CFD3834B
:20398000C28340815181840F951FC817D90759F488819981840F951F0296918380838A81D8
:2039A0009B81938382832115310529F4F0933405E09333053DC0E901FB83EA83499159914A
:2039C000C40FD51FEC17FD0761F480819181840F951F0296E90199838883828193819B838C
:2039E0008A83E0E0F0E012968D919C911397009719F0FD01DC01F7CF8D919C9111979D01BB
:203A00002E5F3F4F820F931F20913105309132052817390769F4309729F41092340510922C
:203A2000330502C013821282B0933205A0933105DF91CF910895A0E0B0E0E1E2FDE10C94C2
:203A4000D01AEC01009721F4CB010E94FA1BB4C0FC01E60FF71F9C0122503109E217F307A8
:203A600008F4A8C0D9010D911C91119706171707B0F00530110508F49BC0C8010497861797
:203A8000970708F495C002501109061B170B019311936D937C93CF010E94921C89C05B017C
:203AA000A01AB10A4C01800E911EA0913305B0913405612C712CE12CF12C109709F446C026
:203AC0008D919C911197A815B905B1F56C0142E0C40ED11CCA14DB0478F14C018A189B08CC
:203AE000640142E0C40ED11C1296BC9012971396AC91B5E0CB16D10440F0B282A383918215
:203B00008082D9016D937C9309C00E5F1F4F800F911FF90191838083EB2DFA2FE114F1049B
:203B200031F0D7011396FC93EE93129741C0F0933405E09333053CC06816790608F43C0190
:203B40007D0112960D90BC91A02DB7CF809131059091320588169906E1F466167706C8F49C
:203B60008091070190910801009741F48DB79EB740910B0150910C01841B950BE817F90794
:203B8000C8F4F0933205E0933105F901718360830FC0CB010E94FA1B7C01009759F0A801DD
:203BA000BE010E94EF1DCE010E94921CC70104C0CE0102C080E090E0CDB7DEB7EEE00C9405
:203BC000EC1A81E090E0F8940C940E1E803209F091110C946D1A80528F55D8F70895FB0124
:203BE000DC0102C001900D9241505040D8F70895FB01DC0101900D920020E1F70895FB01CF
:203C0000DC014150504048F001900D920020C9F701C01D9241505040E0F70895F894FFCFFF
:203C2000018A028A02C800000035058000000000001E038B02B5026B03E602C402D802008E
:203C40000000002D0400049D03D403F803E403D503000000008F088B029D035D049D039A9F
:203C6000035E049703970300000000080A87045C043A0B890400000000000000005C045E1E
:203C8000045E04000000008F088B029D035D0408065B05670624059703424E4F3035350082
:203CA00044757479204379636C653A20004D616E75616C0053797374656D207265616479DC
:203CC0002E20547970652027682720666F722073657269616C20636F6D6D616E64732E0077
:203CE0000A427566666572206F766572666C6F772E20506C6561736520656E7465722000C6
:203D00002063686172616374657273206D6178696D756D2E0A00533A0020473A0020413A44
:203D200000204D3A000A50756C73652074696D652073657420746F20006D73000A4D61785B
:203D4000696D756D20636F6D6D616E64206C656E677468203D20000A4D61676E65746F6D4B
:203D6000657465722056616C7565733A0A583A200075540A593A200075540A5A3A2000758B
:203D8000540A000A4779726F73636F70652056616C7565733A0A583A20007261642F730A97
:203DA000593A20007261642F730A5A3A20007261642F730A000A416363656C65726F6D65DC
:203DC0007465722056616C7565733A0A583A20006D2F73320A593A20006D2F73320A5A3A35
:203DE00020006D2F73320A000A53657269616C20636F6E74726F6C20656E61626C65642EB4
:203E00000053657269616C20000A4D616E75616C20636F6E74726F6C20656E61626C6564AE
:203E20002E004D616E75616C200027002720697320616E20696E76616C696420636F6D6DCA
:203E4000616E642E20547970652027682720666F722061206C697374206F66206163636504
:203E60007074656420636F6D6D616E6473002520004572726F72000A4475747920437963E5
:203E80006C652073657420746F200025000D0A00FFFFFFFFFFFFFFFFFFFFFFFFFFFFFFFF96
:203EA000FFFFFFFFFFFFFFFFFFFFFFFFFFFFFFFFFFFFFFFFFFFFFFFFFFFFFFFFFFFFFFFF22
:203EC000FFFFFFFFFFFFFFFFFFFFFFFFFFFFFFFFFFFFFFFFFFFFFFFFFFFFFFFFFFFFFFFF02
:203EE000FFFFFFFFFFFFFFFFFFFFFFFFFFFFFFFFFFFFFFFFFFFFFFFFFFFFFFFFFFFFFFFFE2
:203F000072696E67206F722049324320414444522100436865636B20424E4F3035352077A8
:203F20006972696E672E0044757479204379636C653A200043616C3A004D616E75616C0082
:203F400053797374656D2072656164792E20547970652027682720666F7220736572696146
:203F60006C20636F6D6D616E64732E000A427566666572206F766572666C6F772E20506C33
:203F80006561736520656E74657220002063686172616374657273206D6178696D756D2E99
:203FA0000A000A50756C73652074696D652073657420746F20006D73000A4D6178696D752B
:203FC0006D20636F6D6D616E64206C656E677468203D20000A4D61676E65746F6D657465D6
:203FE000722056616C7565733A0A583A200075540A593A200075540A5A3A200075540A00E9
:204000000A4779726F73636F70652056616C7565733A0A583A20007261642F730A593A20BF
:20402000007261642F730A5A3A20007261642F730A000A416363656C65726F6D65746572C1
:204040002056616C7565733A0A583A20006D2F73320A593A20006D2F73320A5A3A20006D70
:204060002F73320A000A53657269616C20636F6E74726F6C20656E61626C65642E00536506
:204080007269616C20000A4D616E75616C20636F6E74726F6C20656E61626C65642E004D69
:2040A000616E75616C200027002720697320616E20696E76616C696420636F6D6D616E6490
:2040C0002E20547970652027682720666F722061206C697374206F6620616363657074656C
:2040E0006420636F6D6D616E6473002520004572726F72000A44757479204379636C6520BB
:2041000073657420746F200025000D0A0000FFFFFFFFFFFFFFFFFFFFFFFFFFFFFFFFFFFF06
:20412000FFFFFFFFFFFFFFFFFFFFFFFFFFFFFFFFFFFFFFFFFFFFFFFFFFFFFFFFFFFFFFFF9F
:20414000FFFFFFFFFFFFFFFFFFFFFFFFFFFFFFFFFFFFFFFFFFFFFFFFFFFFFFFFFFFFFFFF7F
:20416000FFFFFFFFFFFFFFFFFFFFFFFFFFFFFFFFFFFFFFFFFFFFFFFFFFFFFFFFFFFFFFFF5F
:20418000FFFFFFFFFFFFFFFFFFFFFFFFFFFFFFFFFFFFFFFFFFFFFFFFFFFFFFFFFFFFFFFF3F
:207E0000112484B714BE81FFF0D085E08093810082E08093C00088E18093C10086E08093FC
:207E2000C20080E18093C4008EE0C9D0259A86E020E33CEF91E0309385002093840096BBAD
:207E4000B09BFECF1D9AA8958150A9F7CC24DD2488248394B5E0AB2EA1E19A2EF3E0BF2E79
:207E6000A2D0813461F49FD0082FAFD0023811F0013811F484E001C083E08DD089C0823404
:207E800011F484E103C0853419F485E0A6D080C0853579F488D0E82EFF2485D0082F10E0A0
:207EA000102F00270E291F29000F111F8ED068016FC0863521F484E090D080E0DECF84364D
:207EC00009F040C070D06FD0082F6DD080E0C81680E7D80618F4F601B7BEE895C0E0D1E0ED
:207EE00062D089930C17E1F7F0E0CF16F0E7DF0618F0F601B7BEE89568D007B600FCFDCF1A
:207F0000A601A0E0B1E02C9130E011968C91119790E0982F8827822B932B1296FA010C016F
:207F200087BEE89511244E5F5F4FF1E0A038BF0751F7F601A7BEE89507B600FCFDCF97BE85
:207F4000E89526C08437B1F42ED02DD0F82E2BD03CD0F601EF2C8F010F5F1F4F84911BD0B8
:207F6000EA94F801C1F70894C11CD11CFA94CF0CD11C0EC0853739F428D08EE10CD085E9AE
:207F80000AD08FE07ACF813511F488E018D01DD080E101D065CF982F8091C00085FFFCCF0A
:207FA0009093C60008958091C00087FFFCCF8091C00084FD01C0A8958091C6000895E0E68F
:207FC000F0E098E1908380830895EDDF803219F088E0F5DFFFCF84E1DECF1F93182FE3DF47
:207FE0001150E9F7F2DF1F91089580E0E8DFEE27FF270994FFFFFFFFFFFFFFFFFFFF040425
:00000001FF
